:03000000020800F3
:0C080000787FE4F6D8FD75810E020847F1
:1009B800202020202020554546532020202020207C
:1009C8002000456E74656C65636879207C204C4511
:0309D80044530085
:030A3300010E4E63
:0D0A1D00D2870000D2860000C287000022B0
:090A2A00C286C287D286D287225F
:030A37008F0D22FE
:060A0D00440CFF12091A5F
:0A0A1300C286D287D2862087FD221A
:02091A00AD0727
:10091C00E4FCC2867E007480A804088006CEA2E7A0
:10092C0013CE13D8F8FFEDFBEF5B6003D38001C34C
:08093C009287D2860CBC08DA98
:010944002290
:1008D500EFC454F0F508EF54F0F509120A1DAF0DF9
:1008E50012091A120A13E509120A0D120945E5093A
:1008F5004408120A0F7F0A7E00120949E508120A08
:100905000D120945E5084408120A0F7F0A7E0012F8
:050915000949020A2A55
:10088C00EFC454F0F50BEF54F0F50C120A1DAF0D3C
:10089C0012091A120A13E50C440D120A0F1209451B
:1008AC00E50C4409120A0F7F0A7E00120949E50B78
:1008BC00440D120A0F120945E50B4409120A0F7F69
:0908CC000A7E00120949020A2A01
:100993008B088A09890AAB08AA09A90A1209F46013
:1009A30013050AE50A7002050914F91209F4FF1286
:0509B300088C80E22227
:040945007F017E00B0
:10094900D3EF9400EE9400401A7D797C00ED1D7080
:10095900011CED4C70F7000000000000EF1F70E073
:030969001E80DD10
:01096C002268
:1009DB007F021208D57F281208D57F0C1208D57F0D
:0909EB00061208D57F010208D5AF
:10096D00AF0E120A371209DB7F801208D57BFF7A92
:10097D000979B81209937FC01208D57BFF7A0979DE
:06098D00CA12099380FE6E
:10080C0002096DE493A3F8E493A34003F68001F28C
:10081C0008DFF48029E493A3F85407240CC8C333ED
:10082C00C4540F4420C8834004F456800146F6DFBC
:10083C00E4800B0102040810204080900A33E47E0F
:10084C00019360BCA3FF543F30E509541FFEE493B1
:10085C00A360010ECF54C025E060A840B8E493A378
:10086C00FAE493A3F8E493A3C8C582C8CAC583CAA3
:10087C00F0A3C8C582C8CAC583CADFE9DEE780BE5B
:010A360000BF
:1009F400BB010689828A83E0225002E722BBFE0201
:090A0400E32289828A83E4932233
:00000001FF
